:020000040800F2
:1000000098700020A901000839340008612A00080E
:1000100035340008D5080008F93900080000000050
:10002000000000000000000000000000773400081D
:10003000330A000800000000753400087934000815
:10004000C3010008C3010008C3010008C301000880
:10005000C3010008C3010008C3010008C301000870
:10006000C3010008C3010008C3010008C301000860
:10007000C3010008C3010008C3010008C301000850
:10008000C3010008C3010008C3010008000000000C
:10009000000000000000000000000000C301000894
:1000A000C3010008C3010008C3010008C301000820
:1000B000C3010008C3010008C3010008C301000810
:1000C000C3010008C3010008C3010008C301000800
:1000D000C3010008C3010008C301000800000000BC
:1000E000C3010008C3010008C301000800000000AC
:1000F000000000000000000000000000C301000834
:1001000000000000C3010008C3010008C30100088B
:1001100000000000000000000000000000000000DF
:10012000C3010008C3010008C3010008C30100089F
:10013000C3010008000000000000000000000000F3
:10014000000000000000000000000000C3010008E3
:10015000C3010008C301000827090008C301000803
:10016000C3010008C30100080000000000000000F7
:10017000000000000000000000000000000000007F
:1001800000000000C30100080000000000000000A3
:10019000C3010008DFF80CD000F076FB00480047F0
:1001A00039490008987000200648804706480047F3
:1001B000FEE7FEE7FEE7FEE7FEE7FEE7FEE7FEE717
:1001C000FEE7FEE765350008950100082DE9F05FC0
:1001D0000546002092469B468846064681464024B6
:1001E0001BE0284641464746224600F016FA534691
:1001F0005A46C01A914110D311461846224600F0C3
:10020000FDF92D1A67EB01084F4622460120002117
:1002100000F0F4F917EB00094E41201EA4F101048F
:10022000DFDC484631462A464346BDE8F09FD2B25D
:1002300001E000F8012B491EFBD270470022F6E7CF
:1002400010B513460A4604461946FFF7F0FF20464C
:1002500010BD2DE9FE4F804681EA0300C00F0C4619
:10026000009021F0004123F00045B8EB0200A941C5
:1002700005D24046214690461C460B46024623F0D6
:100280000040104347D0270DC7F30A00C3F30A51BB
:100290000290401A019040286BDAC3F3130040F437
:1002A000801B0098924620B10023D2EB030A63EB37
:1002B0000B0B01985946C0F14002504600F09EF9E0
:1002C00006460D4650465946019A00F0B6F910EB25
:1002D00008006141002487EA115284EAE7731A4357
:1002E00040D0009A62B3019A012A4FEA075215DC06
:1002F000001B61EB02014FF0004202EA0752CDE918
:100300000042001C41F5801132462B4600F0EDF909
:1003100003B0BDE8F08F40462146F9E7001B61EBD2
:100320000201001C41F5801300185B412018A2F562
:10033000001747EB030140EAD570B6196D4111E093
:100340006D084FEA360645EAC0754FEA0752001BB2
:1003500061EB0201001C41F5801149084FEA3000B1
:100360000019514132462B4603B0BDE8F04F00F072
:10037000ADB90098012240000023D0EB020263EBEC
:10038000E073009821464FEAE074B8EB000061EB9F
:100390000401E9E783F000435BE781F0004158E79F
:1003A0002DE9FE4F81EA030404F0004421F00041EE
:1003B00000944FF0000B23F0004350EA01045ED09C
:1003C00052EA03045BD0C3F30A54C1F30A552C4428
:1003D000A4F2F3340194A0FB0254C1F3130141F4DD
:1003E0008011C3F3130343F4801301FB024400FBA9
:1003F000034E840A970A44EA815447EA8357A4FBD0
:10040000076802958D0A05FB07854FEA932C04FBCC
:100410000C542705029D4FEA065847EA1637B5EBFC
:1004200008056EEB070C870E920E47EA811742EA29
:100430008312A7FB0201B6EB0B0164EB00042B0D4A
:1004400043EA0C335E1844EB1C50DA465146E7FB96
:100450000201C5F313044FEA0B3343EA14534FEA86
:100460000432019C43EA0603A4F10C040294009CAC
:10047000CDE900B400F039F903B0BDE8F08F0020F9
:100480000146F9E72DE9F04D81EA030404F0004B41
:1004900021F0004514464FF0000A23F0004150EAD5
:1004A000050220D054EA01021DD0C5F30A570246C6
:1004B000C5F31303C1F31300C1F30A5640F48015CA
:1004C00043F48013A7EB0608101BD64608F2FD384C
:1004D00073EB050002D308F1010801E092185B41BB
:1004E000B8F1000F03DA00200146BDE8F08D0020CE
:1004F0004FF48011064684460EE0171B73EB050788
:1005000005D3121B63EB050306434CEA010C4908B3
:100510004FEA300092185B4150EA0107EDD152EAF0
:10052000030012D082EA040083EA0501084305D0E3
:10053000101BAB4106D20122002306E000224FF03F
:10054000004302E06FF0010253101AEB06004CEB7F
:10055000085110EB0A0041EB0B01BDE8F04D00F033
:10056000B5B80EB5C10F80EAE0700844CA07002193
:1005700040F233438DE80E000A460B4600F0B5F812
:1005800003B000BD0EB540F2334102910021CDE928
:1005900000110A460B4600F0A8F803B000BD00F0B9
:1005A000004230F000400AD0C10D01F56071C0F387
:1005B000160042EA0151C20840071143704700206B
:1005C0000146704701F0004330B421F0004150EA89
:1005D000010206D00A0DA2F56072C1F31301002AD0
:1005E00002DC30BC00207047440F44EAC104C10063
:1005F000E01830BC00EBC25000F031B8202A04DB18
:10060000203A00FA02F1002070479140C2F1200325
:1006100020FA03F3194390407047202A04DB203A64
:1006200021FA02F00021704721FA02F3D040C2F112
:1006300020029140084319467047202A06DBCB1759
:10064000203A41FA02F043EAE07306E041FA02F38D
:10065000D040C2F12002914008431946704700295A
:10066000A8BF7047401C490008BF20F00100704738
:1006700010B4B0FA80FC00FA0CF050EA010404BF98
:1006800010BC704749B1CCF1200421FA04F411FAEE
:100690000CF118BF012121430843A3EB0C01CB1D32
:1006A0004FEA00614FEA102042BF002010BC7047A3
:1006B00000EBC35010440029A4BF10BC7047401C7D
:1006C000490008BF20F0010010BC704710B5141E8F
:1006D00073F1000408DA401C41F1000192185B41FB
:1006E0001A4301D120F0010010BD2DE9F04D9246D2
:1006F0009B4611B1B1FA81F202E0B0FA80F22032E9
:100700009046FFF77BFF04460F4640EA0A0041EAA5
:100710000B0153465A46084313D0114653EA0100D1
:1007200019D0C8F140025046FFF777FF05460E4644
:10073000504659464246FFF761FF084305D0012065
:1007400004E020463946BDE8F08D0020054346EA26
:10075000E0762C4337430A986305E40AA0EB0800CF
:100760000022FD0A44EA47540A3002D5002001461F
:10077000E9E7010510196941DDE9084500196941FA
:10078000BDE8F04DA2E770B521F0004303430CD063
:10079000C1F30A550024D5EB040564EB0403D61716
:1007A000AD1AB34102DB0020014670BD201841EBB9
:1007B000025170BD2DE9F04D00231A461B1A8A41E3
:1007C00003DB00200146BDE8F08DC1F30A52C1F3FE
:1007D000130141F480154FF0000BD10702D100182E
:1007E0006D41521E0027044640F2FF11384601EBCE
:1007F000620A3E468046024600204FF48011FFF711
:100800000CFFC2197141BB1846EB0100B4EB030C9D
:1008100075EB000C04D3E41A65EB000517460E4691
:10082000241908F101006D4180463428E3DDF919EF
:1008300046EB0600091BA84103D24FF0FF321346D6
:1008400001E0002213461BEB070046EB0A51BDE80E
:10085000F04DFFF73BBF000030B5041E71F10004FE
:1008600004DB4FF00044404264EB0101141E73F1BD
:10087000000405DB1C464FF00043524263EB0403C7
:10088000994208BF904230BD064C074D06E0E06833
:1008900040F0010394E8070098471034AC42F6D3C7
:1008A000FFF77CFC404C0008704C000840F2010C43
:1008B000C2F2000C604710B501F06EFB02F0E2FDE1
:1008C000542000F0B7F802F02FFD4FF4E13004F0AF
:1008D00033F910BD00BFFEE702460B46D11A11F1F5
:1008E000220F05DD11F11E0F02DA6FF005007047CF
:1008F00011F1020F04DD022902DA6FF00500F6E7BC
:100900001E2904DD222902DA6FF00500EFE700203E
:10091000EDE70146087D00F040020AB9002070476B
:100920006FF00600FBE7704701460878103818237F
:10093000B0FBF3F20848805CC865032A05D9086853
:100940006FF30900001D886503E008686FF3090074
:100950008865886D70470000904B000801460020B4
:100960008A6A8B69CBB932B1012A0DD0022A03D031
:10097000032A10D10EE000BFCB6A03F08073B3F1FD
:10098000807F00D1012007E0CB6AB3F1C07F00D1A6
:10099000012001E000E000BF34E08B69B3F5005FA7
:1009A0001AD132B1012A07D0022A03D0032A11D169
:1009B0000AE000BF01200EE0CB6A03F08073B3F1C0
:1009C000807F00D1012006E0CB6AB3F1C07F00D167
:1009D000012000E000BF15E032B1012A05D0022A53
:1009E00004D0032A0CD103E000BF00BF012008E0BF
:1009F000CB6A03F08073B3F1807F00D1012000E067
:100A000000BF00BF704730B50468246824F4802418
:100A100005682C60046863608468402C04D1046815
:100A2000A2600468E16003E00468A1600468E26019
:100A300030BD70474FF0E021096921F004014FF00B
:100A4000E02211611146096921F002011161C2170A
:100A500000EB5272C2F3C702074B1A7019460978AD
:100A600001EB4102C2EBC1114FF6FF7202EAC10174
:100A7000024A1180704700005E0700205C070020DA
:100A80002DE9F04F2DED088BBBB005460E46002436
:100A900015F8400F00F00F0001902878C0F3031BF9
:100AA0002888C0F3032A28881E2101EB1030029009
:100AB000B5F80290403D002025E0840000F12201BD
:100AC00015F8111001F00F0123AA42F8241000F1CB
:100AD000220115F81110C1F3031223AB611C43F876
:100AE000212000F1220135F81110C1F30322A11CCD
:100AF00043F8212000F1220135F811100A0BE11C06
:100B000043F82120401C0628D7DB00200CE023A955
:100B100051F82010072906DD23A951F820101039BB
:100B200023AA42F82010401C1828F0DB002025E002
:100B3000840000F1280115F8111001F00F0103AA3B
:100B400042F8241000F1280115F81110C1F3031226
:100B500003AB611C43F8212000F1280135F8111086
:100B6000C1F30322A11C43F8212000F1280135F82C
:100B700011100A0BE11C43F82120401C0828D7DB88
:100B800000200CE003A951F82010072906DD03A975
:100B900051F82010103903AA42F82010401C2028D8
:100BA000F0DB002798E04FF0000890E0202000FBE9
:100BB000078404F1400035F81000C0F3051000EE82
:100BC000100AB8EEC00A06F1440000EB840080ED84
:100BD000000A06F1440000EB840090ED000AF3EEF9
:100BE0000F0AB4EEE00AF1EE10FA0FDD06F1440050
:100BF00000EB840090ED000ADFED3B0A30EE600A66
:100C000006F1440000EB840080ED000A06F1440088
:100C100000EB8400D0ED000A0121019801FA00F0F8
:100C200000EE100AB8EEC00A20EE800A06F1440079
:100C300000EB840080ED000A23A850F8270000FA9A
:100C40000AF000EB090103A850F8280000FA0BF0A5
:100C5000084400EE100AB8EEC00A06F1440000EBAA
:100C60008400D0ED000A30EE200A06F1440000EBCB
:100C7000840080ED000A0298FFF784FC41EC1B0B16
:100C8000B0EE4B1AF0EE6B1A9FED180B02F0D8FE87
:100C9000B0EE409AF0EE609A06F1440000EB84005A
:100CA00090ED000A10EE101A0846FFF778FC41ECB0
:100CB0001A0B53EC192BFFF7E5FB41EC180BFFF770
:100CC00081FC06F1440141F8240008F10108B8F163
:100CD000200FFFF66BAF7F1C182FFFF664AF3BB001
:100CE000BDEC088BBDE8F08F0000804200000000E2
:100CF000000000400EB5838A03F400631A1182F0ED
:100D0000800290F86A3003F03F0300EE103AB8EE2C
:100D1000C00A8DED000A9DED000AF3EE0F0AB4EE55
:100D2000E00AF1EE10FA07DD9DED000ADFED340A6E
:100D300030EE600A8DED000A9DED000AF3EE000A28
:100D400080EE201A8DED001AB0F86A30C3F38413D8
:100D500000EE103AB8EEC00A8DED010A9DED010AD1
:100D6000F2EE0E0AB4EEE00AF1EE10FA07DD9DEDA8
:100D7000010ADFED240A30EE600A8DED010A9DEDD7
:100D8000010AF0EE000A80EE201A8DED011AB0F88B
:100D90006A30DB0A00EE103AB8EEC00A8DED020AA6
:100DA0009DED020AF2EE0E0AB4EEE00AF1EE10FA40
:100DB00007DD9DED020ADFED130A30EE600A8DEDCE
:100DC000020A9DED020AF2EE000A80EE201A8DED75
:100DD000021A81F825209DED000A01F5205383EDCC
:100DE000940A9DED010A42F650230B4483ED010A5B
:100DF0009DED020A42F650230B4483ED020A0EBD1C
:100E000000008042000000422DE9F0412DED0A8BE8
:100E100084B004460D46B4F840001B2101EB1038A5
:100E2000B4F87400C0F30900ADF80400BDF9040083
:100E3000B0F5007F06DBBDF80400A0F5806000B2CD
:100E4000ADF80400B4F87400800AADF80600BDF9EE
:100E500006001F2805DDBDF80600403800B2ADF8D9
:100E60000600BDF80600BDF80410084400B2ADF855
:100E70000600B4F87200C0F3090000EE100AB8EEE4
:100E8000C00A8DED020A9DED020ADFED750AB4EE8F
:100E9000E00AF1EE10FA07DD9DED020ADFED710ABE
:100EA00030EE600A8DED020A4046FFF76BFB41EC25
:100EB0001C0BB0EE4C1AF0EE6C1A9FED6B0B02F0AF
:100EC000BFFDB0EE40AAF0EE60AA9DED020A10EE62
:100ED000101A0846FFF763FB41EC1B0B53EC1A2B6F
:100EE000FFF7D0FA41EC190BFFF76CFB0290B4F856
:100EF0007200800A00EE100AB8EEC00A8DED030AF7
:100F00009DED030AF3EE0F0AB4EEE00AF1EE10FADB
:100F100007DD9DED030ADFED560A30EE600A8DED28
:100F2000030A9DED030A9FED531AC0EE010AB7EEC6
:100F3000000A30EE800ADDED020A20EE200A8DED77
:100F4000030A94F8760000EE100AF8EEC08A9FEDCE
:100F50004A0AF4EEC08AF1EE10FA05DD9FED470A69
:100F600038EEC00AF0EE408A94F87000C0F3031027
:100F700000F108063046FFF705FB41EC1C0BB0EE14
:100F80004C1AF0EE6C1A9FED380B02F059FDB0EEE2
:100F900040AAF0EE60AA18EE900AFFF700FB41ECC1
:100FA0001B0B53EC1A2BFFF76DFA41EC190BFFF7F3
:100FB00009FB2862B4F87600000A00EE100AB8EEC9
:100FC000C08A9FED2D0AB4EEC08AF1EE10FA05DD5D
:100FD0009FED2A0A38EE400AB0EE408AB4F870005D
:100FE000C0F303273846FFF7CDFA41EC1C0BB0EEF7
:100FF0004C1AF0EE6C1A9FED1C0B02F021FDB0EEC6
:1010000040AAF0EE60AA18EE100AFFF7C8FA41EC09
:101010001B0B53EC1A2BFFF735FA41EC190BFFF7BA
:10102000D1FAE8619DED020A05F5205080ED910AA4
:101030009DED030A42F64420284480ED010ABDF8E4
:10104000041042F64C204153BDF8060042F64C21F4
:101050002944488004B0BDEC0A8BBDE8F081000053
:101060000080FF43000080440000000000000040BA
:1010700000008042000000430000FE420000804368
:101080002DE9F04782460D4600240027A046A146E0
:1010900000BF0DE04FF6FF7042F65C21294421F8B5
:1010A000140042F66621294421F81400601C84B221
:1010B000052CEFDB00241EE004F140003AF810009C
:1010C00038B942F65C20284420F81740781C87B2D3
:1010D0000FE004F140001AF8100000F0010040B1E8
:1010E00042F66620284420F8184008F101001FFA53
:1010F00080F8601C84B2B4F5407F04DA052F02DA70
:10110000B8F1050FD8DB042F02DD6FF0020964E0AF
:10111000B8F1040F02DD6FF003095EE007EB080091
:10112000042802DD6FF0040957E0002419E0661C72
:1011300013E042F65C222A4432F8161042F65C2292
:101140002A4432F81400FFF7C7FB8146B9F1000FBB
:1011500002D04846BDE8F087761CBE42E9DB601C41
:1011600084B2BC42E3DB002418E0661C12E042F6C5
:1011700066222A4432F8161042F666222A4432F8D1
:101180001400FFF7A9FB8146B9F1000F01D04846D2
:10119000E0E7761C4645EADB601C84B24445E4DBAC
:1011A000002418E0002612E042F666222A4432F8B3
:1011B000161042F65C222A4432F81400FFF78CFB2A
:1011C0008146B9F1000F01D04846C3E7761C464579
:1011D000EADB601C84B2BC42E4DB4846BAE7024664
:1011E000B2F8603018B2B0F5004F00DB00B2888270
:1011F00070470000B0F87820120A00EE902AF8EE4E
:10120000E00AB0EE600ADFED0B0AB4EEE00AF1EEA0
:1012100010FA05DDDFED080A70EE600AB0EE600A34
:10122000DFED060A80EE201AB0EE410A81ED0A0ACF
:10123000704700000000FE420000804300000046AE
:1012400030B57A308288C2F3013202EB8202540058
:101250006FF027028A870025CD870279C2F3031534
:10126000402255528288C2F3032542225552402221
:10127000525A12FB04F215B240225552B1F94050B5
:101280004222525A12FB045215B24222555202799E
:1012900002F00F0202F10803012202FA03F30278BE
:1012A00000EE102AB8EEC00A81ED0B0A0288120A7D
:1012B00000EE102AB8EEC00A81ED0C0A827800EE2A
:1012C000102AB8EEC00A81ED0D0A42887A38120A57
:1012D00000EE102AB8EEC00A81ED0E0A00222FE0BF
:1012E00001F12C0505EB820595ED000ADFED160AEC
:1012F000B4EEE00AF1EE10FA0FDD01F12C0505EB7A
:10130000820595ED000ADFED110A30EE600A01F169
:101310002C0505EB820585ED000A01F12C0505EB96
:101320008205D5ED000A00EE103AB8EEC00A80EE54
:10133000801A01F12C0505EB820585ED001A521C7F
:10134000042ACDDB30BD00000000FE4200008043D7
:101350002DE9F04F2DED088B85B006460D46002493
:10136000B6F86C00000A4FFA80FBBBF17F0F01DD7D
:101370004FFA8BFB8DF810B096F86C004FFA80F89E
:10138000B8F17F0F01DD4FFA88F88DF81280B6F8BA
:101390006E00000A47B27F2F00DD7FB28DF811701A
:1013A00096F86E004FFA80F9B9F17F0F01DD4FFA20
:1013B00089F98DF8139096F87000C0F30310083087
:1013C000039096F8700000F00F0002904FF0000AB2
:1013D000B5E000200090ACE02021009801FB0A0459
:1013E0002046E31704EBD3635B1121464FEAE47C0C
:1013F00004EB9C6C4FEAAC1CA3EB4C03224604EBC1
:10140000D27C4FEA6C0CA4EB4C0C4FF0020E0EFB9E
:1014100003C3DBB20193403016F81000C0F3420062
:1014200000EE100AB8EEC00A41F24420284400EB56
:10143000840080ED000A41F24420284400EB84003F
:1014400090ED000AF0EE080AB4EEE00AF1EE10FAB0
:1014500011DD41F24420284400EB840090ED000AA5
:10146000F2EE000A30EE600A41F24420284400EB1C
:10147000840080ED000A41F24420284400EB8400FF
:10148000D0ED000A0121029801FA00F000EE100AE6
:10149000B8EEC00A20EE800A41F24420284400EB56
:1014A000840080ED000A04A90198085600EE100A95
:1014B000B8EEC00A41F24420284400EB8400D0ED8D
:1014C000000A30EE200A41F24420284400EB840058
:1014D00080ED000A0398FFF755F841EC1B0BB0EEC6
:1014E0004B1AF0EE6B1A9FED1A0B02F0A9FAB0EE50
:1014F000409AF0EE609A41F24420284400EB8400C8
:1015000090ED000A10EE101A0846FFF748F841EC7B
:101510001A0B53EC192BFEF7B5FF41EC180BFFF734
:1015200051F841F24421294441F824000098401C1C
:10153000009000982028FFF64FAF0AF1010ABAF197
:10154000180FFFF646AF05B0BDEC088BBDE8F08F75
:1015500000000000000000402DE9F04F2DED088B49
:1015600085B005460E460024B5F868004FEA103BEA
:10157000BBF1070F03DDABF110004FFA80FB8DF8D4
:1015800010B0B5F86800C0F30328B8F1070F03DD09
:10159000A8F110004FFA80F88DF8128095F86800D5
:1015A000C0F30317072F02DDA7F1100047B28DF833
:1015B000117095F8680000F00F09B9F1070F03DD0D
:1015C000A9F110004FFA80F98DF81390B5F870006A
:1015D000C0F3032003900020019063E04FF0000A65
:1015E0005AE02021019801FB00A42046E31704EBF8
:1015F000D3635B1121464FEAE47C04EB9C6C4FEA19
:10160000AC1CA3EB4C03224604EBD27C4FEA6C0CDF
:10161000A4EB4C0C4FF0020E0EFB03C3DBB20293A3
:1016200004A8029BC05600EE100AB8EEC00A41F6AC
:101630004460304400EB840080ED000A0398FEF71C
:10164000A1FF41EC1B0BB0EE4B1AF0EE6B1A9FEDB5
:10165000190B02F0F5F9B0EE409AF0EE609A41F6FF
:101660004460304400EB840090ED000A10EE101A44
:101670000846FEF794FF41EC1A0B53EC192BFEF7CA
:1016800001FF41EC180BFEF79DFF41F64461314428
:1016900041F824000AF1010ABAF1200FA1DB0198F8
:1016A000401C01900198182898DB05B0BDEC088B10
:1016B000BDE8F08F00000000000000402DE9F0437D
:1016C000B8B00246002092F8203003F00F0C92F8D8
:1016D0002030C3F30317138CC3F30326538C1DB2BE
:1016E000B5F5004F00DB2DB2002328E0980003F190
:1016F000120412F8144004F00F040DF1800848F8A9
:10170000204003F1120412F81440C4F303180DF141
:101710008009441C49F8248003F1120432F8144073
:10172000C4F30328841C49F8248003F1120432F81E
:1017300014404FEA1438C41C49F824805B1C062B63
:10174000D4DB00230DE020AC54F82340072C07DD48
:1017500020AC54F82340103C0DF1800848F8234099
:101760005B1C182BEFDB002324E0980003F1180426
:1017700012F8144004F00F044DF8204003F118044F
:1017800012F81440C4F30318441C4DF8248003F1EC
:10179000180432F81440C4F30328841C4DF8248044
:1017A00003F1180432F814404FEA1438C41C4DF801
:1017B00024805B1C082BD8DB002309E05DF8234064
:1017C000072C04DD5DF82340103C4DF823405B1CE2
:1017D000202BF3DB00234CE0002447E04FF02008EF
:1017E00008FB034000F1400832F818804FEA9829BE
:1017F00001F6444828F8109038F91080B8F11F0F0E
:101800000BDD01F6444838F81080A8F140080FFAC3
:1018100088F901F6444828F8109001F6444838F851
:1018200010804FF0010909FA0CF908FB09F80FFACA
:1018300088F901F6444828F810900DF1800838F82E
:10184000238008FA06F808EB05093DF8248008FA19
:1018500007F8C14401F6444838F81080C8440FFA2C
:1018600088F901F6444828F81090641C202CB5DB58
:101870005B1C182BB0DB38B0BDE8F0832DE9F041DC
:101880002DED0A8B04460D46B4F86400800A00EE84
:10189000100AB8EEC00AF0EE408AB3EE0F0AF4EE7A
:1018A000C08AF1EE10FA05DD9FED2A0A38EEC00A73
:1018B000F0EE408A9FED280AC8EE800AF0EE608ABA
:1018C000B4F86400C0F3090000EE100AB8EEC08A54
:1018D0009FED220AB4EEC08AF1EE10FA05DD9FED0D
:1018E000200A38EE400AB0EE408AB2EE000AC8EE96
:1018F000000AB0EE608AB4F8620007B29FED191BCF
:101900009FED1A0B02F09CF8B0EE40BAF0EE60BA10
:10191000218C01F47040FEF724FE41EC1C0B53ECCB
:101920001B2BFEF7AFFD41EC1A0B9FED120B53EC96
:10193000102BFEF78EFC41EC190BFEF743FE06461A
:10194000C5ED018A85ED028AAF812E61BDEC0A8B5F
:10195000BDE8F08100008042000080450080FF4328
:10196000000080440000000000002C400000000047
:10197000000000400000000000002040B0F870307F
:10198000C3F3013281F824207047000090F87820DA
:1019900000EE902AF8EEE00AB0EE600ADFED0A0AE7
:1019A000B4EEE00AF1EE10FA05DDDFED080A70EEA4
:1019B000600AB0EE600ADFED060A80EE201AB0EE93
:1019C000410A81ED060A70470000FE420000804394
:1019D0000000004230B50A46B0F8664021B2B0F8C7
:1019E0006640210A7F2902DDA1F5807421B24C01F5
:1019F00021B290F86630A3F580744FF40055C5EB22
:101A000044131180538030BD70B504460CB90120D9
:101A100070BD94F83500022800D1F9E7206800680D
:101A200020F001002168086000202168086021681A
:101A30004860216888602168C860216808612120A9
:101A4000216848612046FEF76FFF054694F85C1058
:101A50003F208840A8600020606584F8350000BF02
:101A600084F8340000BF00BFD2E700002DE9F04148
:101A70000446002500F07EFA074614B90120BDE8AF
:101A8000F081606A00B100BF00BF002084F834001C
:101A900000BF022084F835002068006820F00100B3
:101AA000216808600AE000F065FAC01B052805D926
:101AB00020206065032084F83500E0E72068006896
:101AC00000F001000028EED120680568214805409B
:101AD000D4E901010843E1680843216908436169C9
:101AE0000843A1690843E1690843216A08430543A3
:101AF000606A042803D1D4E90B0108430543206838
:101B000005602068456925F00705606A0543606A3D
:101B100004280DD1A06A0543E06A48B12046FEF7CB
:101B20001DFF28B140206065012084F83500A6E73C
:101B3000206845612046FEF7F7FE064694F85C10E3
:101B40003F208840B06000206065012084F83500A7
:101B5000002094E73F8010F02DE9F04104460D4647
:101B600016461F464FF0000800BF94F834000128C5
:101B700002D10220BDE8F081012084F8340000BFCA
:101B800094F83500012811D1022084F83500002096
:101B900060653B46324629462046FEF734FF206802
:101BA000006840F001002168086006E000BF0020E6
:101BB00084F8340000BF4FF002084046DAE72DE910
:101BC000F04704460D4616461F464FF00008D4F86D
:101BD000589000BF94F83400012802D10220BDE8DB
:101BE000F087012084F8340000BF94F83500012804
:101BF0002BD1022084F83500002060653B46324638
:101C000029462046FEF7FFFE94F85C103F208840EE
:101C1000C9F808002068006840F0160021680860D4
:101C20002068406940F0800021684861206C28B13C
:101C30002068006840F0080021680860206800689B
:101C400040F001002168086006E000BF002084F831
:101C5000340000BF4FF002084046C0E7F0B50C4624
:101C6000002500220023002181E0012606FA01F56B
:101C700004EA0502AA4279D106684FEA410C03271B
:101C800007FA0CF7BE430660CF0800F1200656F8AD
:101C900027604F074FEAD76C0F2707FA0CF7BE43B0
:101CA0004FEAD10C00F1200747F82C6086684FEA14
:101CB000410C032707FA0CF7BE43866047680126EC
:101CC0008E40B7434760C6684FEA410C032707FAC6
:101CD0000CF7BE43C660284E8F0856F827308E0793
:101CE000370F0F26BE403340244EB04201D10026AC
:101CF00014E0234EB04201D101260FE0214EB04244
:101D000001D102260AE0204EB04201D1032605E0AF
:101D10001E4EB04201D1042600E007268F073F0F78
:101D2000BE409E4222D18E07370F0F2606FA07F3D8
:101D3000114E8F0856F827609E430F4F4FEA910CC3
:101D400047F82C60124E36689643114F3E603E1D98
:101D5000366896433F1D3E603E1D366896433F1DE4
:101D60003E603E1D366896433F1D3E60491C10296B
:101D7000FFF47BAFF0BD00000838014000000240D6
:101D80000004024000080240000C02400010024023
:101D9000003C0140F8B503460A4600250024002017
:101DA0000021CDE0012606FA01F5166806EA0504D1
:101DB000AC4273D15668022E02D05668122E13D14F
:101DC000CF0803F1200656F827004E07F70E0F261E
:101DD000BE40B0434F07FF0E1669BE403043CF08E8
:101DE00003F1200646F8270018684F000326BE407E
:101DF000B043167906F003064F00BE40304318602A
:101E00005668012E08D05668022E05D05668112E4D
:101E100002D05668122E13D198684F000326BE4098
:101E2000B0434F00D668BE403043986058680126E2
:101E30008E40B0431679C6F300168E40304358608A
:101E4000D8684F000326BE40B0434F009668BE409E
:101E50003043D860566806F08056B6F1805F6ED188
:101E600000BF00260096384E366846F48046364F4E
:101E70003E603E46366806F48046009600BF00BFCE
:101E8000324E8F0856F827008E07370F0F26BE40B8
:101E9000B0432F4EB34202D1002615E04FE02D4E45
:101EA000B34201D101260FE02B4EB34201D10226ED
:101EB0000AE02A4EB34201D1032605E0284EB34280
:101EC00001D1042600E007268F073F0FBE403043B4
:101ED0001E4E8F0846F82700224E3068A0435668F1
:101EE00006F48036B6F5803F00D120431D4E3060A9
:101EF000361D3068A043566806F40036B6F5003F3C
:101F000000D12043174E361D3060361D3068A04387
:101F1000566806F48016B6F5801F00D12043114E96
:101F200008363060361D3068A043566806F4001647
:101F3000B6F5001F00D120430A4E0C363060491C14
:101F40001029FFF42FAFF8BD443802400838014093
:101F5000000002400004024000080240000C024061
:101F600000100240003C01400AB1816101E00B0415
:101F70008361704701480068704700004C070020EB
:101F8000034800680349097808440149086070471C
:101F90004C0700205407002010B50D48006840F49D
:101FA00000700B4908600846006840F480600860D3
:101FB0000846006840F480700860032000F0BCF818
:101FC000002000F007F800F02BF8002010BD000002
:101FD000003C024070B504460E4800784FF47A7118
:101FE000B1FBF0F00C490968B1FBF0F5284600F0B0
:101FF0002EFC08B1012070BD102C07D20022214612
:10200000501E00F05BF80548046001E00120F2E793
:102010000020F0E754070020580700205007002058
:1020200008B500BF002000902348006840F48040BD
:10203000214908600846006800F48040009000BF15
:1020400000BF00BF00200090081F006840F08050D3
:10205000091F08600846006800F08050009000BF2B
:1020600000BF032000F068F8002211466FF00B005B
:1020700000F024F8002211466FF00A0000F01EF86C
:10208000002211466FF0090000F018F800221146F6
:10209000501F00F013F800221146101F00F00EF838
:1020A00000221146901E00F009F800221146501E31
:1020B00000F004F808BD0000443802402DE9F05F4C
:1020C00080460D461646002701F0B8F90746394606
:1020D0002A46334601F00700C0F1070ABAF1040F9F
:1020E00002D94FF0040A01E0C0F1070AD14600F11D
:1020F000040ABAF1070F02D24FF0000A01E0A0F182
:10210000030AD4464FF0010A0AFA09FAAAF1010AB1
:102110000AEA020A0AFA0CFA4FF0010B0BFA0CFB5E
:10212000ABF1010B0BEA030B4AEA0B0421464046D4
:1021300001F08CF9BDE8F09F00BF00F00702064BEC
:1021400019684FF6FF031940044B0B4343EA022181
:10215000014B196000BF70470CED00E00000FA056C
:1021600070B504460D460CB9012070BD5848006892
:1021700000F00F00A84209D255490D7008460068CA
:1021800000F00F00A84201D00120EEE7207800F017
:10219000020002281DD1207800F00400042805D197
:1021A0004C48006840F4E0504A490860207800F04C
:1021B0000800082805D14748006840F460404549B8
:1021C00008604448006820F0F000A16808434149D5
:1021D0000860207800F00100A8B36068012807D1EA
:1021E0003C4808380068C0F34040B8B90120BCE75B
:1021F0006068022802D06068032807D13548083893
:102200000068C0F3406048B90120AEE731480838A3
:102210000068C0F3400008B90120A6E72D48006817
:1022200020F00300616808432A490860FFF7A2FE16
:10223000064609E0FFF79EFE801B41F28831884286
:1022400002D9032091E707E02248006800F00C0063
:102250006168B0EB810FEDD11D48006800F00F0000
:10226000A84209D91A490D700846006800F00F000D
:10227000A84201D0012078E7207800F0040004286B
:1022800007D11448006820F4E050E1680843114980
:102290000860207800F00800082808D10D48006880
:1022A00020F46040216940EAC1000A49086000F05A
:1022B0003DF808490968C1F30311074A515CC84059
:1022C000064908600020FFF785FE00204DE700006A
:1022D000003C024008380240984B00085807002094
:1022E00001480068704700005807002000B5FFF75C
:1022F000F7FF04490968C1F38221034A515CC840D1
:1023000000BD000008380240A84B000800B5FFF7E8
:10231000E7FF04490968C1F34231034A515CC840F0
:1023200000BD000008380240A84B00082DE9F04726
:10233000002400250026A1462548006800F00C0076
:1023400020B1042805D008283AD105E0DFF88490B0
:1023500039E0DFF8849036E01D48001F006800F087
:102360003F041B48001F006800F4800078B11A4841
:102370001749091F0968C1F38811A0FB01700146C4
:10238000224600233846FDF721FF05460EE011489E
:102390000F49091F0968C1F38811A0FB01700146AC
:1023A000224600233846FDF711FF05460848001F66
:1023B0000068C0F30140401C4600B5FBF6F902E09E
:1023C000DFF8109000BF00BF4846BDE8F08700006E
:1023D000083802400024F40000127A00F8B50446E0
:1023E0000CB90120F8BD207800F00100002874D05D
:1023F000F948006800F00C0004280DD0F648006889
:1024000000F00C00082813D1F348001F006800F406
:102410008000B0F5800F0BD1EF4808380068C0F39A
:102420004040002859D06068002856D10120D9E7E3
:1024300000BF6068B0F5803F08D1E7480838006801
:1024400040F48030E449083908601EE06068B0F567
:10245000A02F0DD1E0480838006840F48020DE4904
:10246000083908600846006840F4803008600CE0D5
:10247000D9480838006820F48030D7490839086006
:102480000846006820F48020086000BF606890B1B2
:10249000FFF770FD054606E0FFF76CFD401B642862
:1024A00001D903209EE7CC4808380068C0F34040BB
:1024B0000028F1D011E0FFF75DFD054606E0FFF7CB
:1024C00059FD401B642801D903208BE7C248083816
:1024D0000068C0F340400028F1D1207800F00200ED
:1024E00002285FD1BC48006800F00C0058B1BA481F
:1024F000006800F00C0008281CD1B748001F0068D5
:1025000000F48000B0B9B44808380068C0F3400057
:1025100020B1E068012801D0012063E7AE48083807
:10252000006820F0F800216940EAC100AA49083992
:10253000086037E0E06800B30120A8490860FFF7B1
:1025400019FD054606E0FFF715FD401B022801D9DD
:10255000032047E7A04808380068C0F3400000287F
:10256000F1D09D480838006820F0F800216940EA61
:10257000C10099490839086014E0002097490860B3
:10258000FFF7F8FC054606E0FFF7F4FC401B0228C5
:1025900001D9032026E7904808380068C0F34000BE
:1025A0000028F1D1207800F0080008282CD16069BB
:1025B000A8B101208A490860FFF7DCFC054606E067
:1025C000FFF7D8FC401B022801D903200AE7824804
:1025D0006C300068C0F340000028F1D014E0002007
:1025E0007F490860FFF7C6FC054606E0FFF7C2FC1E
:1025F000401B022801D90320F4E677486C300068BC
:10260000C0F340000028F1D1207800F00400042835
:1026100070D1002670483830006800F0805090B9C2
:1026200000BF002000906C483830006840F08050B7
:102630006949383108600846006800F08050009011
:1026400000BF00BF01266748006800F48070B0B981
:102650006448006840F4807062490860FFF78AFCB3
:10266000054606E0FFF786FC401B022801D903203F
:10267000B8E65C48006800F480700028F2D000BF23
:10268000A068012808D154486830006840F0010073
:102690005149683108601DE0A06805280DD14E48F9
:1026A0006830006840F004004B4968310860084613
:1026B000006840F0010008600CE04748683000689E
:1026C00020F001004449683108600846006820F0A5
:1026D0000400086000BFA068A8B1FFF74BFC0546E6
:1026E00009E0FFF747FC401B41F28831884202D9DC
:1026F000032077E626E0384868300068C0F34000E1
:102700000028EED013E0FFF735FC054608E0FFF7A0
:1027100031FC401B41F28831884201D9032061E637
:102720002D4868300068C0F340000028EFD1012E2A
:1027300007D129483830006820F0805026493831C8
:10274000086000BFA069B8B32348006800F00C001F
:1027500008285ED0A069022846D100201F490866DB
:10276000FFF708FC054606E0FFF704FC401B0228C3
:1027700001D9032036E6184808380068C0F34060E5
:102780000028F1D1D4E907010843616A40EA8111C8
:102790000122A06AC2EB500041EA00412C20005DFA
:1027A00041EA00600C49091F086001200B490866D6
:1027B000FFF7E0FB054607E02DE0FFF7DBFB401BE2
:1027C000022801D903200DE6034808380068C0F349
:1027D00040600028F1D01EE0083802400000474267
:1027E000800E47420070004000200C490866FFF749
:1027F000C1FB054606E0FFF7BDFB401B022801D9DF
:102800000320EFE506480068C0F340600028F2D1DD
:1028100001E00120E6E50020E4E500000000474279
:1028200000380240042808D14FF0E021096941F046
:1028300004014FF0E022116107E04FF0E021096947
:1028400021F004014FF0E02211617047704770B52C
:1028500004462546681EB0F1807F01D301200FE0B9
:10286000681E4FF0E02148610F214FF0FF3000F06B
:10287000EDFD00204FF0E021886107200861002075
:1028800070BD10B5FFF7E2FF10BD10B504460CB9DE
:10289000012010BD242084F83900204600F046F8BD
:1028A0000020E06384F8390084F83A0000BF84F81F
:1028B000380000BF00BFECE7704710B504460CB904
:1028C000012010BDA06900B100E000BF94F83900FC
:1028D00028B9002084F83800204600F043F824206E
:1028E00084F839002068C06820F400502168C8606E
:1028F000204600F0CDFE2068006920F49040216859
:1029000008612068406920F02A0021684861206839
:10291000C06840F400502168C8600020E0632020B7
:1029200084F8390084F83A000020CAE710B504465C
:102930000949206888420DD10848006820F010003D
:10294000064908604FF4C0610548FFF787F9206B1E
:10295000FFF75AF810BD0000001001404438024053
:102960000000024010B586B0044612492068884233
:102970001ED100BF002000900F48006840F01000FA
:102980000D4908600846006800F01000009000BF84
:1029900000BF4FF4C060019002200290012003901C
:1029A000032004900720059001A90448FFF7F2F9DD
:1029B00006B010BD00100140443802400000024043
:1029C000F7B50446154694F8390020283DD1019802
:1029D00000B10DB90120FEBD00BF94F838000128F8
:1029E00001D10220F7E7012084F8380000BF0198E8
:1029F0002062A584E5840020E063212084F839006A
:102A00001348216BC8631348216B08641248216B7B
:102A1000C8640020216B086501AE23681A1D316867
:102A20002B46206BFFF7CBF86FF040002168086061
:102A300000BF002084F8380000BF2068406940F0E3
:102A40008000216848610020C5E70220C3E700003C
:102A5000193600084F360008C9350008704770471E
:102A600000BFFEE72DE9F04105460F462548006806
:102A700020F4404023490860002438E022480068E0
:102A800000F0BCFF0026B04624E01F48006800F0BC
:102A9000B5FF40201B49183108601B48006800F052
:102AA000ADFF7006060E17481030006800F0800079
:102AB00008B1701CC6B21448006800F09FFF4FF4C4
:102AC00080001049183108600F48006800F096FF38
:102AD00008F10108B8F1080FD7DB681EA04202D147
:102AE00000F0EEF801E000F079F83E55641CAC42CD
:102AF000C4DB0448006840F4804002490860BDE837
:102B0000F0810000000402406407002010B517485F
:102B1000006820F44040154908601548006800F03E
:102B20006DFF40201149183108601148006800F01D
:102B300065FF0E481030006800F0800008B90024DE
:102B400000E001240A48006800F058FF07480068C8
:102B500040F48040054908604FF480000349183173
:102B6000086040000860204610BD000000040240DC
:102B70006407002000B51748006840F480401549FC
:102B800008604FF48000134918310860124800684B
:102B900000F034FF80200F49183108600E480068AB
:102BA00000F02CFF40200B49183108600A480068EB
:102BB00000F024FF4FF40000064918310860064871
:102BC000006800F01BFF4FF48000024918310860D4
:102BD00000BD0000000402406407002000B5144856
:102BE000006840F48040124908604FF4000010492A
:102BF000183108600F48006800F000FF40200C49C1
:102C0000183108600B48006800F0F8FE09480068B9
:102C100000F0F4FE4FF480000549183108600548C3
:102C2000006800F0EBFE802001491831086000BD0B
:102C30000004024064070020F0B504460127254641
:102C40001D48006840F480401B490860002628E0C9
:102C50001A48006800F0D2FE05F0800020B1802004
:102C600015491831086004E04FF40000124918318A
:102C700008601248006800F0C1FE40200E4918317B
:102C800008600E48006800F0B9FE0C48006800F0CB
:102C9000B5FE4FF48000084918310860680045B25D
:102CA000761C082ED4DB0548006800F0A7FEFFF76D
:102CB0002DFF07463846F0BD00040240640700209F
:102CC00000B51448006840F4804012490860802034
:102CD0001049183108601048006800F08FFE40204D
:102CE0000C49183108600C48006800F087FE0A485B
:102CF000006800F083FE4FF4800006491831086038
:102D00000548006800F07AFE80200249183108600A
:102D100000BD0000000402406407002000B5134815
:102D2000006840F480401149086080200F49183144
:102D30000860402008600E48006800F05FFE0C4804
:102D4000006800F05BFE4FF400000849183108608D
:102D50000748006800F052FE4FF480000349183124
:102D600008600348006800F049FE00BD000402400E
:102D70006407002000B51148006840F480400F4906
:102D800008604FF480000D49183108604000086069
:102D90000B48006800F032FE4020084918310860F6
:102DA0000748006800F02AFE8020044918310860B6
:102DB0000348006800F022FE00BD0000000402404D
:102DC0006407002070B505460C4623464FF4507248
:102DD0004FF41051284600F0A1F970BD70B50546BA
:102DE0000E462846FDF795FD0446002C38D13146A5
:102DF0002846FEF7EFFD31462846FEF73FFD3146F7
:102E00002846FEF7ECF931462846FEF7BFFD31466D
:102E10002846FEF7B3FD31462846FEF7EBF931466A
:102E20002846FEF70DFA31462846FDF729FE3146C1
:102E30002846FEF743FC31462846FEF789FA31461C
:102E40002846FEF789FB31462846FDF7DDFF31466F
:102E50002846FDF74FFF31462846FEF711F9044694
:102E6000204670BD2DE9FC4180460D460127012416
:102E7000002600270EE06B460122D103404600F0F9
:102E80004DF9044614B12046BDE8FC81BDF80000B0
:102E900000F00807002FEED026E030224FF400416A
:102EA000404600F0B9F90446601C08B92046EBE73B
:102EB0002B464FF450724FF48061404600F02EF9DB
:102EC00004460CB12046DFE76B460122D1034046A1
:102ED00000F024F904460CB12046D5E7BDF8000007
:102EE00000F00807701CC6B20FB1052ED5DB042E0A
:102EF00002DD6FF00700C7E701AB012248F20D01C8
:102F0000404600F00BF90446BDF80400A5F8800621
:102F1000BDF8000000F00100A5F882060CB12046C3
:102F2000B2E7B5F88206AFE770B52DED0A8B05461E
:102F30000C462146284600F07FF8F0EE409AB5F89E
:102F4000400600EE100AB8EE400AF0EE408A9FED0F
:102F5000330AF4EEC08AF1EE10FA05DD9FED300A77
:102F600038EEC00AF0EE408AB5F8000600EE100A0E
:102F7000B8EE408A9FED290AB4EEC08AF1EE10FA4D
:102F800005DD9FED270A38EE400AB0EE408A9FED3E
:102F9000251B9FED260B00F053FDB0EE40BAF0EE7E
:102FA00060BAD4ED040AB0EE480A08EEA00AC8EEF2
:102FB000800A10EE906A3046FDF7F1FA41EC1C0BE6
:102FC00053EC1B2BFDF7ECF941EC1A0BFDF7FAFA69
:102FD00008EE100AD4ED010A9FED160A39EEC01A68
:102FE000B7EE000A00EE810AC8EE000AA08900EEE2
:102FF000100AB8EE400A30EEC00AB0EE409AD4EDA6
:10300000020A89EE200AF3EE090A30EE200AB0EE39
:10301000409AB0EE490ABDEC0A8B70BD00FEFF4637
:103020000000804700000000000032400000000067
:10303000000000403333534070B52DED0A8B054638
:103040000C46B5F8540600EE100AB8EE400AB0EE91
:10305000408A9FED2D0AB4EEC08AF1EE10FA05DD2C
:103060009FED2A0A38EE400AB0EE408AB5F8800695
:10307000C0F381263046FDF774FA41EC1C0BB0EE2C
:103080004C1AF0EE6C1A9FED220B00F0D9FCB0EE5A
:1030900040AAF0EE60AA94F82400FDF773FA41EC20
:1030A0001C0BB0EE4C1AF0EE6C1A9FED190B00F0F1
:1030B000C7FCB0EE40BAF0EE60BA53EC1A2B51ECFC
:1030C0001B0BFDF7DFF941EC190BFDF77BFA08EE5E
:1030D000900AB4F9020000EE100AB8EEC00A18EE29
:1030E000880AB4F9000000EE900AB8EEE01AC0EECB
:1030F000010A9FED090A30EE800AB0EE408AB0EE78
:10310000480ABDEC0A8B70BD00FEFF4600008047F8
:103110000000000000000040333353402DE9FF4F12
:10312000ADF2846D83460D4616460024A046A146A6
:103130000020CDF880064FF4D0616846FDF77EF898
:10314000DDF890A64FEA4B60070E28128DF8800636
:10315000E8B28DF88106FFF70DFE2E48006800F0FA
:103160004DFCFFF7DBFD2B48006800F047FC78B210
:10317000FFF762FD08B1012000E0002004462CB1F9
:103180004FF0FF300DF2946DBDE8F08F9DF8801682
:1031900048B2FFF751FD08B1012000E000200446CD
:1031A00014B14FF0FF30EDE79DF8811648B2FFF7FC
:1031B00043FD08B1012000E00020044614B14FF0A7
:1031C000FF30DFE7FFF7D6FC47F0010778B2FFF7E3
:1031D00033FD044614B14FF0FF30D3E77000694669
:1031E000FFF740FCFFF7C6FD4FF000080DE04FEA87
:1031F000480909F101001DF800101DF8090001EB54
:1032000000202AF8020B08F10108B045EFDB00208E
:10321000B8E70000640700202DE9F84307460E4692
:1032200014464FF000080020009078064FEA10691D
:1032300030128DF80000F0B28DF8010020128DF8E8
:103240000200E0B28DF80300FFF794FD1948006812
:1032500000F0D4FBFFF762FD4FFA89F0FFF7ECFCBA
:103260008046B8F1000F02D00120BDE8F8830025A8
:103270000CE01DF8051048B2FFF7DEFC8046B8F1FF
:10328000000F02D04FF0FF30EFE76D1C042DF0DB94
:10329000FFF770FD084B012231463846FFF73EFF2D
:1032A00005480088A04202D06FF00100DDE7002051
:1032B000DBE700006407002068070020F8B5064639
:1032C0006B46012248F20D013046FFF727FF054605
:1032D00055B9BDF8000040F48054224648F20D0173
:1032E0003046FFF799FF05462846F8BDF8B5074672
:1032F0000C466007850D6B46012248F20D013846E9
:10330000FFF70CFF064666B9BDF800004FF67F4197
:1033100008400543AAB248F20D013846FFF77CFF8A
:1033200006463046F8BD000000B587B000BF00205B
:1033300001901E48006840F080001C490860084663
:10334000006800F08000019000BF00BF00BF0020B7
:1033500001900846006840F00100086008460068D7
:1033600000F00100019000BF00BF00BF00200190ED
:103370000846006840F0020008600846006800F057
:103380000200019000BF00BF0122C0210848FEF7E3
:10339000EBFDC0200290012003900490059002A94B
:1033A0000348FEF7F7FC07B000BD000030380240CC
:1033B0000004024038B504460D4600BF00200090CE
:1033C0001948006840F48000174908600846006802
:1033D00000F48000009000BF00BF00BF13481449F4
:1033E000086308461149886300BF084604604560C9
:1033F000402181600021C1604FF4806101610021A2
:10340000416181614FF48071C16109020162002153
:103410004162032181620021C1620163FEF7F4FA77
:103420000248FEF723FB38BD303802403820002028
:10343000F81F002000BFFEE7704700000248006848
:10344000C0F30220704700000CED00E010B500282A
:1034500007DA0A07140E054A00F00F031B1FD454A5
:1034600003E00A07130E024A135410BD18ED00E0E2
:1034700000E400E07047704710B5FEF781FDFFF7EC
:1034800000FA10BD10B592B000BF002000902F4888
:10349000006840F080502D4908600846006800F040
:1034A0008050009000BF00BF00BF0020009028485F
:1034B000006820F4404040F4004025490860084678
:1034C000006800F44040009000BF00BF012006905B
:1034D0000004079002200C9041050D9104210E91EB
:1034E00054210F91022110910421119106A8FEF799
:1034F00075FF18B1732117A000F087FA0F20019013
:1035000002200290002003904FF48050049000208D
:103510000590022101A8FEF723FE18B181210DA01C
:1035200000F073FAFEF7DCFE4FF47A71B0FBF1F4B1
:103530002046FFF78CF90420FFF774F900221146AA
:10354000501EFEF7BBFD12B010BD00004038024017
:10355000007000402E2E2F5372632F6D61696E2E06
:10356000630000001448006840F4700012490860CD
:103570001248006840F001001049086000200F491F
:10358000083108600D4800680D4908400B49086083
:103590000C48091D0860081F006820F48020091FDE
:1035A0000860002005490C3108604FF000600249B6
:1035B000803908607047000088ED00E00038024064
:1035C000FFFFF6FE1030002470B506460025B46BF0
:1035D00020684069C0F3C01594F83900212805D14E
:1035E00025B10020E084204600F048F820684069BA
:1035F000C0F3801594F83A00222805D125B10020A7
:10360000E085204600F02AF8E06B40F01000E0630F
:103610002046FFF751F970BD70B50546AC6B2868C0
:10362000006800F4807070B90020E0842068406970
:1036300020F08000216848612068C06840F04000A8
:103640002168C86002E02046FFF708FA70BD70B537
:103650000446A56B2846FFF702FA70BD0168C968E9
:1036600021F490710268D1600168496921F001017B
:1036700002685161202180F83A1070470168C968DA
:1036800021F0C0010268D160202180F83910704714
:103690002DE9F041044600252068056925F44055D0
:1036A000E0680543206805612068C56849F20C6040
:1036B00085432169A068084361690843E1690843BB
:1036C00005432068C5602068456925F44075A069F8
:1036D000054320684561E069B0F5004F7ED1C449DB
:1036E0002068884203D0C349206888425DD1FEF734
:1036F0000DFE00EBC00101EB001061684900B0FB5A
:10370000F1F06421B0FBF1F00601FEF7FFFD00EBE4
:10371000C00101EB001061684900B0FBF1F7FEF752
:10372000F5FD00EBC00101EB001061684900B0FB42
:10373000F1F06421B0FBF1F000EBC00101EB0010EF
:10374000A7EB8000322101EBC0006421B0FBF1F057
:1037500000F0F80006EB4006FEF7D8FD00EBC001D4
:1037600001EB001061684900B0FBF1F7FEF7CEFDF8
:1037700000EBC00101EB001061684900B0FBF1F003
:103780006421B0FBF1F000EBC00101EB0010A7EBEE
:103790008000322101EBC0006421B0FBF1F000F0A9
:1037A000070030442168886020E1FEF79FFD00EBB0
:1037B000C00101EB001061684900B0FBF1F0642129
:1037C000B0FBF1F00601FEF791FD00EBC00101EB4B
:1037D000001061684900B0FBF1F700E045E0FEF73A
:1037E00085FD00EBC00101EB001061684900B0FBF2
:1037F000F1F06421B0FBF1F000EBC00101EB00102F
:10380000A7EB8000322101EBC0006421B0FBF1F096
:1038100000F0F80006EB4006FEF768FD00EBC00183
:1038200001EB001061684900B0FBF1F7FEF75EFDA7
:1038300000EBC00101EB001061684900B0FBF1F042
:103840006421B0FBF1F000EBC00101EB0010A7EB2D
:103850008000322101EBC0006421B0FBF1F000F0E8
:103860000700304421688860C0E0614920688842D0
:1038700003D06049206888425CD1FEF747FD00EB29
:10388000C00101EB001061688900B0FBF1F6FEF7A2
:103890003DFD00EBC00101EB001061688900B0FB49
:1038A000F1F06421B0FBF1F000EBC00101EB00107E
:1038B000A6EB8000322101EB00106421B0FBF1F097
:1038C00000F0F006FEF722FD00EBC00101EB001056
:1038D00061688900B0FBF1F06421B0FBF1F006EB08
:1038E0000016FEF713FD00EBC00101EB001061684C
:1038F0008900B0FBF1F7FEF709FD00EBC00101EB19
:10390000001061688900B0FBF1F06421B0FBF1F0B8
:1039100000EBC00101EB0010A7EB8000322101EBAE
:1039200000106421B0FBF1F000F00F00304421687A
:1039300088605BE0FEF7DAFC00EBC00101EB0010F1
:1039400061688900B0FBF1F6FEF7D0FC00EBC00126
:1039500001EB001061688900B0FBF1F06421B0FB5D
:10396000F1F000EBC00101EB0010A6EB800032216A
:1039700001EB00106421B0FBF1F000F0F006FEF75F
:10398000B5FC00EBC00101EB001061688900B0FBE1
:10399000F1F06421B0FBF1F006EB0016FEF7A6FC97
:1039A00000EBC00101EB001061688900B0FBF1F78A
:1039B000FEF79CFC00EBC00101EB00106168890080
:1039C000B0FBF1F06421B0FBF1F000EBC00101EBC2
:1039D0000010A7EB8000322101EB00106421B0FB46
:1039E000F1F000F00F00304421688860BDE8F081FC
:1039F000001001400014014000BFFEE7002101E07B
:103A0000521C491C8142FBDB704700BFFEE703B438
:103A100001984100009850EAC12018BF04204A0DC7
:103A200018BF40F0010040F2FF72B2EB515F08BFD7
:103A300040F00200012808BF052002B070470000D6
:103A40002DE9F04D2DED040B2DED0E8B96B0DDE93B
:103A50002550279CDDF890A025F0004624F0004872
:103A6000BAF1000F14BF0121002101EB4502FC490E
:103A700053184A1093422AD3002814BF012300236D
:103A800003EB44030B44F7498B4220D358EA00016F
:103A90009FEDF59B76D0DFF8D8B35D4503D1BAF141
:103AA000000F05D188E0BAF1000F08BF002100D057
:103AB000012101EB450111F5001F08D8002814BFB2
:103AC0000121002101EB440111F5001F0BD99DEDEF
:103AD000261B9DED240B16B0BDEC0E8B04B0BDE88B
:103AE000F04D00F0A9BE0027002DBCBFE14988457C
:103AF00021DAE1498845A8BF02271CDAC3451ADC50
:103B0000DE4901EB2851142908DDC1F1340220FA05
:103B100002F101FA02F282420DD108E058B9C1F176
:103B2000140228FA02F101FA02F2424503D101F02F
:103B30000101C1F1020756EA0A0124D1002C22DA60
:103B4000002D18BF022F01D0012F0AD0022000F053
:103B5000BFFE16B0BDEC0E8B04B0BDE8F04D00F01A
:103B600053BE022000F0B4FE00F04EFE51EC100BEC
:103B700081F0004141EC100B16B0BDEC0E8B04B08F
:103B8000BDE8F08D18E09FEDBEAB9FEDBF8B002828
:103B900071D1B848804522D105F1804010F58010E0
:103BA00008BFBAF1000F07D0B3450ADC002CA8BF4C
:103BB0009DED260BE0DA0DE0B0EE490AF0EE690A61
:103BC000DAE7002C06DA9DED260B51EC100B81F0A4
:103BD00000416FE0AE48784490ED000BCCE7D8454B
:103BE0004DD1002C48DA2EB186423AD1BAF1000FFD
:103BF00042D126E0BAF1000F13D0022000F068FE97
:103C000000F036FE8DED020B9DED240B8DED000BCB
:103C100010EE900A039961F31E0003909DED020BD4
:103C2000AAE78DED02AB9DED240B1AEE901A10EE73
:103C3000900A8DED000B61F31E0003909DED020BC9
:103C40009AE78DED028B9DED240B18EE901A10EE85
:103C5000900A8DED000B61F31E0003909DED020BA9
:103C60008AE709DA9DED240B51EC190B53EC102B6C
:103C7000FCF708FC1EE020E09DED240B7CE786426B
:103C80001BDAB4F1804F0DD0A4F10050B0F1FF5019
:103C900013D1002D11DB9DED240B51EC100B00F026
:103CA00013FF07E09DED240B53EC102B51EC100B90
:103CB00000F0C2BC41EC100B5EE79DED240B51EC13
:103CC000100B00F02DFEBAF1000FCDE90E0142D12C
:103CD0009FED710B46B3A6F1E040B0F17F600CD0D0
:103CE0005E4538D1002D00DAA7B3022F0CBF0120AA
:103CF0004FF0FF30FCF735FCDCE7002D01DD002C38
:103D00000DDA002D01DD002C1FDB002D16DA002C52
:103D100014DB012F08BF9FED620B3FF42DAFB0EE17
:103D20004A0AF0EE6A0A27E7022F18BF002D0CD0CE
:103D3000012F0AD1002DFFF61FAF06E0002DB8BFFE
:103D4000002C08DA012F3FF417AFB0EE480AF0EE6E
:103D5000680A11E71BE0012000EBE57050EA07015B
:103D600015D0791EB0EE498AF0EE698A084308BF83
:103D70009FED4D8B4E480025804570DD4D494E48E6
:103D8000884514DDB0420DDB002C19DB2FE001204B
:103D900000F09EFD16B0BDEC0E8B04B0BDE8F04DFA
:103DA00000F056BDB34502DC002C09DC1FE0864262
:103DB00002DA002C1BDA03E05E452BDD002C16DD59
:103DC000022000F085FD00F053FD8DED020B53EC59
:103DD0001A2B51EC180BFCF7E3FACDE9000103991B
:103DE000019861F31E0003909DED020BC4E60220D2
:103DF00000F06EFD00F04CFD10EE901A18EE900AE7
:103E00008DED020B8DED008B61F31E0003909DED97
:103E1000020BB1E69DED0E0B53EC192B51EC100B80
:103E2000FCF7B8FA9FED260BCDE9080153EC102BF7
:103E30009DED080B51EC100BFCF7B2FA9FED221B25
:103E400053EC112BFCF7A9FA9DED081B53EC112B39
:103E5000FCF7A6FA9FED1E1B53EC112B3CE08CE007
:103E6000FFFF1F00FFFF0F00000000000000F03FF9
:103E70000000F03F0000F07F0000404301FCFFFF26
:103E8000000000000000F07F0000000000000000C3
:103E90005E10000000000000000000000000008034
:103EA000000000000000F0FF000000000000F0BF74
:103EB0000000E0410000F043FFFFEF3F0000000082
:103EC000000000000000D03F555555555555D53FD1
:103ED000000000000000E03FFCF75FFA9DED080BDA
:103EE00041EC1A0B53EC102B51EC100BFCF758FA69
:103EF00053EC1A2BFCF754FA41EC1A0B9FEDFE0B16
:103F000053EC102B9DED080B51EC100BFCF748FA0D
:103F100041EC1B0B9FEDFA0B51EC1A0B53EC102BE1
:103F2000FCF73EFA41EC1A0B9FEDF70B53EC102B0C
:103F30009DED080B51EC100BFCF732FA53EC1A2BE9
:103F4000FCF728FA41EC1A0B51EC1B0B53EC1A2B23
:103F5000FCF77FF90690CDE906519DED060B53EC79
:103F60001B2B51EC100BFCF715FA53EC1A2BFCF73A
:103F700014FA41EC100B00F0A1B90020B6F5801F37
:103F80000EDA9FEDE30B53EC102B9DED0E0B51EC75
:103F9000100BFCF705FACDE90E016FF034000E4668
:103FA00000EB2650A0F2FF37C6F31300DA4940F0C9
:103FB0007F6646F040568842D8BF002408DDD749C6
:103FC0008142C8BF012403DC0024A6F580167F1CB3
:103FD000D348784400EBC4000F9690ED00CB9DEDE4
:103FE0000E0B53EC1C2B51EC100BFCF7D3F99DED91
:103FF0000E0B41EC1B0B53EC1C2B51EC100BFCF784
:1040000028F941EC100B51EC190B53EC102BFCF779
:1040100039FA41EC1D0B51EC1B0B53EC1D2BFCF73B
:10402000BFF941EC1A0BBF488DED10AB78441095E9
:1040300090ED000B4FF0005040EA660000EB84402A
:104040008DED080B00F5002009909DED080B53EC59
:104050001C2B51EC100BFCF79DF99DED0E1B53EC46
:10406000112BFCF79AF941EC100B53EC102B9DED42
:10407000100B51EC100BFCF793F99DED080B41EC84
:104080001C0B53EC102B9DED100B51EC100BFCF79F
:1040900087F953EC1B2BFCF780F953EC1C2BFCF736
:1040A00079F953EC1D2BFCF77BF941EC1C0B53EC1D
:1040B0001A2B51EC1A0BFCF773F941EC1B0B9A48C5
:1040C0000621B0EE4B0AF0EE6B0A784400F01DFBBF
:1040D000B0EE401AF0EE601AB0EE41DAF0EE61DABE
:1040E00053EC1B2B51EC1B0BFCF75AF953EC1D2B1B
:1040F000FCF756F99DED100B41EC1B0B53EC1A2B02
:1041000051EC100BFCF7A5F853EC1C2BFCF748F90D
:1041100053EC1B2BFCF79DF89DED100B41EC1B0B9A
:1041200053EC102B51EC100BFCF73AF941EC1D0B42
:104130009FED7FEB53EC1E2BFCF78BF853EC1B2B06
:10414000FCF787F80890CDE908519DED080B53EC7A
:104150001E2B51EC100BFCF71DF953EC1D2BFCF73B
:1041600019F953EC1B2BFCF718F99DED080B41ECEA
:104170001D0B53EC102B9DED100B51EC100BFCF7AD
:104180000FF941EC1B0B53EC1A2B51EC1D0BFCF7F8
:1041900007F99DED080B41EC1A0B53EC102B51EC79
:1041A0001C0BFCF7FDF853EC1A2BFCF752F841EC12
:1041B0001A0B51EC1B0B53EC1A2BFCF74AF80C9022
:1041C000CDE90C519DED0C0B53EC1B2B51EC100B5E
:1041D000FCF7E0F853EC1A2BFCF7DFF841EC1B0B73
:1041E0009FED550B53EC102B9DED0C0B51EC100B70
:1041F000FCF7D6F841EC1A0B9FED510B51EC1B0B61
:1042000053EC102BFCF7CCF841EC1B0B9FED4E0B45
:1042100053EC102B9DED0C0B51EC100BFCF7C0F880
:1042200053EC1B2BFCF715F841EC100B4848784475
:1042300000EBC40090ED001B51EC100B53EC112B64
:10424000FCF707F841EC1B0B3846FCF78AF9CDE97F
:10425000080153EC1B2B51EC1A0BFBF7FAFF41EC56
:10426000100B3C48784400EBC40090ED00CB51ECBF
:10427000100B53EC1C2BFBF7ECFF9DED081B53ECD4
:10428000112BFBF7E6FF0690CDE906519DED080BDB
:1042900053EC102B9DED060B51EC100BFCF77AF84C
:1042A00053EC1C2BFCF776F853EC1A2BFCF772F846
:1042B00053EC1B2BFCF771F841EC100B9DED261B0A
:1042C00053EC102B8DED001B00959DED260B51EC52
:1042D000100BFCF765F89DED000B41EC1A0B53EC4D
:1042E000102B9DED260B51EC100BFCF753F89DEDB8
:1042F000061B53EC112B2FE0000000604715F73F21
:10430000FE822B654715F73F44DF5DF80BAE543E48
:1043100000000000000040438E9803007AB60B00B6
:10432000DA0B0000080C0000120B00000000000077
:104330000000000000000840000000E009C7EE3F58
:10434000FD033ADC09C7EE3FF5015B14E02F3EBEEA
:104350009E09000058090000FCF722F853EC1A2BC4
:10436000FBF777FF9DED060B41EC1A0B53EC102B7E
:104370009DED000B51EC100BFCF712F8CDE90C0190
:104380009DED0C0B51EC1A0B53EC102BFBF761FF5E
:10439000CDE902010C46AA498C422FDB611A084381
:1043A00018D19DED0C0B53EC102B9DED020B51EC35
:1043B000100BFBF7EFFF41EC1B0B9FEDA30B51EC38
:1043C0001A0B53EC102BFBF744FF53EC1B2BFCF7A1
:1043D00043FA2DD2022000F07BFA00F049FA10EEE9
:1043E000901A18EE900A8DED020B8DED008B61F3A3
:1043F0001E0003909DED020BFFF7BEBB944A24F014
:104400000041914214D39349214408437FF4EFAC17
:104410009DED0C0B53EC102B9DED020B51EC100B92
:10442000FBF7B8FF53EC1A2BFCF716FA7FF6DFAC5C
:1044300024F000408849894A002601EB205182423D
:104440002BDA481C4FF4801121FA00F02044844AF2
:10445000C0F30A517A44A1F2FF3192ED000B814A78
:104460008DED080BCA4020EA0202C0F3130040F4AD
:104470008010C1F1140120FA01F60992002CB8BF96
:1044800076429DED080B53EC102B9DED0C0B51EC7F
:10449000100BFBF77FFFCDE90C019DED0C0B51ECF0
:1044A0001A0B53EC102BFBF7D4FE9FED6F0B08900B
:1044B000CDE9085153EC102B9DED080B51EC100B7E
:1044C000FBF76EFF41EC1B0B9FED690B53EC102BC0
:1044D0009DED080B51EC100BFBF762FF9DED0C0BF3
:1044E00041EC1C0B53EC102B9DED080B51EC100B09
:1044F000FBF750FF53EC1A2BFBF74FFF9FED5E1BB2
:1045000053EC112BFBF74CFF53EC1C2BFBF7A1FEDC
:1045100041EC1A0B51EC1B0B53EC1A2BFBF799FED9
:10452000CDE902019DED020B53EC1B2B51EC100B5E
:10453000FBF730FF53EC1A2BFBF72FFF9DED020B1F
:1045400041EC1A0B53EC102B51EC100BFBF728FF2E
:10455000CDE908014A489DED080B0521784400F09B
:10456000D4F89DED081B51EC100B53EC112BFBF70D
:1045700017FF9DED021B53EC112BFBF70EFFCDE94E
:1045800006019DED020B53EC1A2B51EC100BFBF7BF
:1045900007FF53EC1A2BFBF75CFE9FED3B0B41EC46
:1045A0001A0B53EC102B9DED060B51EC100BFBF787
:1045B000F1FE9DED060B41EC1B0B53EC102B9DED1A
:1045C000020B51EC100BFBF7EBFE53EC1B2BFBF734
:1045D00059FF53EC1A2BFBF7DDFE9DED021B53EC4C
:1045E000112BFBF7D7FE53EC192BFBF7D6FECDE9C9
:1045F000020101EB065001150029C8BF039015DC2C
:104600009DED020B324651EC100BFCF7BCF8FFF7A6
:10461000FEF9042808BF00F03BF932469DED020B7D
:1046200051EC100BFCF7AFF8CDE902019DED020B48
:1046300051EC180B53EC102BFBF7B2FEFFF73ABB13
:104640000000904000000000FE822B654715973C5B
:1046500000CC904000346F3F01FCFFFF0000E03FC2
:10466000E0070000FFFF0F0000000000432EE63FC0
:10467000396CA80C615C20BEEF39FAFE422EE63F91
:10468000B006000000000000000000000000004034
:1046900000B52DED048BB0EE409AF0EE609A83B039
:1046A00051EC190BFCF786F841EC180B18EE100AC8
:1046B00018EE901A8DED008B002818BF01200843DA
:1046C00020F00040C0F17F6000F1E040C00F14D046
:1046D00019EE101A19EE900A8DED009B002918BFF3
:1046E0000121084320F00040C0F17F6000F1E0406C
:1046F000C00F04BF012000F0EBF8B0EE480A03B091
:10470000F0EE680ABDEC048B00BD70B504462DEDDB
:10471000028B4D1E00EBC500B0EE408AF0EE608AC1
:1047200090ED000B35F0060017D053EC182B51EC30
:10473000100BFBF735FE41EC100B6D1E04EBC500B2
:1047400090ED001B51EC100B53EC112BFBF781FD8E
:1047500041EC100B35F00600E7D1022D36D0042DC8
:104760001CD0062D1CBFBDEC028B70BD53EC182B6A
:1047700051EC100BFBF714FE94ED0A1B53EC112BBC
:10478000FBF767FD53EC182BFBF70AFE94ED081BB3
:1047900053EC112BFBF75DFD41EC100B53EC182B88
:1047A00051EC100BFBF7FCFD94ED061B53EC112BA9
:1047B000FBF74FFD53EC182BFBF7F2FD94ED040BC8
:1047C00053EC102BFBF745FD41EC100B53EC182B71
:1047D00051EC100BFBF7E4FD94ED021B53EC112B95
:1047E000FBF737FD53EC182BFBF7DAFD94ED001BBC
:1047F00053EC112BFBF72DFDBDEC028B41EC100BA4
:1048000070BD0000000000009FED070B10B553ECD9
:10481000102B9FED070B51EC100BFBF733FE41EC17
:10482000100B10BD000000000000000000000000A0
:10483000000000000000F03F10B553EC112B51ECCC
:10484000100BFBF706FD41EC100B10BD0000000043
:104850009FED050B10B553EC102B51EC100BFBF733
:1048600011FE41EC100B10BD000000000000000024
:104870009FED050B10B553EC102B51EC100BFBF713
:104880008FFD41EC100B10BD000000000000007017
:104890009FED050B10B553EC102B51EC100BFBF7F3
:1048A0007FFD41EC100B10BD000000000000001067
:1048B00002E008C8121F08C1002AFAD170477047E9
:1048C000002001E001C1121F002AFBD17047000047
:1048D00001490860704700006C0700200F490988F3
:1048E0004143491E4FF0E02251610121916111467F
:1048F000096941F00101116100BF4FF0E021096930
:1049000001F480310029F8D04FF0E021096921F04D
:1049100001014FF0E0221161704700005C070020A8
:1049200082B0CDE9000121F0004001909DED000B27
:1049300002B051EC100B70472DED048BADF5445DCA
:104940009FED5B0AB0EE409A0024FBF7B4FF5A20BB
:10495000584908704870022088700620C8700321EA
:104960003320FEF7C3FC3320FEF7A8FC5249332066
:10497000FEF728FA03A95048FEF730FA00BF0BE013
:1049800042F67C2169443320FEF76CFA4FF4FA704A
:10499000FFF7A4FF601C84B2032CF1DB4FF4C1626B
:1049A00044494648FEF70CF881E042F67C21694410
:1049B0003320FEF757FA03A942F67C206844FEF73D
:1049C000B3FAB0EE408AB2EE000A78EE408A3C4A72
:1049D000F0EE680AB0EE490A03A942F67C2068446A
:1049E000FBF764FF45F65A2505F20265002435E021
:1049F000334800EB840090ED000ADFED320A20EE30
:104A0000200ABCEEC00A10EE100A042101EB44019A
:104A1000284A50542A4800EB840090ED000ADFED4C
:104A2000290A20EE200ABCEEC00A10EE100AC0F3DC
:104A30000720052101EB44015054214800EB84007C
:104A400090ED000ADFED1F0A20EE200ABCEEC00A3E
:104A500010EE100A80B20544601C84B2B4F5407FA9
:104A6000C6DB9FED180A28EE000ABCEEC00A10EE65
:104A7000100A104981F804069FED120A28EE000A78
:104A8000BCEEC00A10EE100A000A81F805069FED80
:104A90000D0A28EE000ABCEEC00A10EE100A81B220
:104AA0000D44044981F80656280A81F807067CE778
:104AB0003333733FF019002070070020F81F0020E7
:104AC000F00D00200000C84200B52DED048B83B02E
:104AD00041EC190BFBF76EFE41EC180B18EE100AB7
:104AE00018EE901A8DED008B002818BF01200843A6
:104AF00020F00040C0F17F6000F1E040C00F14D012
:104B000019EE101A19EE900A8DED009B002918BFBE
:104B10000121084320F00040C0F17F6000F1E04037
:104B2000C00F04BF0120FFF7D3FE51EC180B03B0F8
:104B3000BDEC048B00BD000010B504460F48FDF726
:104B4000A4FE0F480D4908600846446000218160BA
:104B5000C160016181610C214161FDF7AEFE4FF042
:104B600000610848FEF726FC4FF4C163044A121D99
:104B700005490648FCF7F0FF10BD0000F81F0020B3
:104B800000100140B8640240F019002038200020D5
:104B900000061016000610160000000000000000BD
:104BA00001020304060708090000000001020304D3
:104BB000000000000000F03F000000000000F83F8F
:104BC00000000000000000000000004003B8E23FC9
:104BD000000000000000000006D0CF43EBFD4C3E7B
:104BE000033333333333E33FFFAB6FDBB66DDB3F70
:104BF0004D268F515555D53F01411DA96074D13FB8
:104C000065DBC9934A86CD3FEF4E454A287ECA3FB1
:104C10003E5555555555C53F93BDBE166CC166BF33
:104C20002CDE25AF6A56113FF16BD2C541BDBBBE2C
:104C3000D0A4BE726937663E00000000000000008C
:104C4000704C0008000000204C070000B04800082D
:104C5000BC5300084C07002024000000B0480008A6
:104C6000E05300087007002028690000C0480008D1
:104C70002DE9F74F2DED020B2DED108B8EB0064672
:104C80000C46B0EE40BAB0EE60DAB6F88206069096
:104C90002146304600F06AFBF0EE40AA214630463D
:104CA00000F069FBF0EE408A9FEDFE0A38EE800AC4
:104CB00010EE101A084600F063FB41EC1F0B9FED4D
:104CC000FA1BB0EE4F0AF0EE6F0A00F05EFBB0EE9A
:104CD00040CAF0EE60CA51EC1C0B00F05BFB0EEE1C
:104CE000900A9FEDF00A3DEE000A10EE101A0846F9
:104CF00000F046FB41EC1F0B9FEDEB1BB0EE4F0AA3
:104D0000F0EE6F0A00F041FBB0EE40CAF0EE60CA70
:104D100051EC1C0B00F03EFB0DEE900A7DEEEE0A0E
:104D200080EE8B0A3DEEC00AF0EE40BAD4ED0B0ADD
:104D30009FEDDF1AB7EE000A00EE810AF7EE000AD7
:104D400080EE801A8DED071AB7EE000A8DED080A85
:104D5000D4ED0D0AB4F9400000EE100AB8EEC01A06
:104D6000B7EE000A00EE810A8DED090AB4F942108F
:104D7000B4F94000081A00EE100AF8EEC00A94EDEB
:104D80000E1AB7EE000A01EE200ADDED090A20EE48
:104D9000200A8DED0A0AB6F8140600EE100AB8EEE5
:104DA000400AB0EE409A9FEDC30AB4EEC09AF1EE0D
:104DB00010FA05DD9FEDC00A39EE400AB0EE409AC8
:104DC000B4F9140000EE100AB8EEC00AC0EE090AE9
:104DD000B0EE609AB6F8800600F480504FEA601892
:104DE000B6F8100600EE100AB8EE400A8DED0C0A77
:104DF000B6F8500600EE100AB8EE400A8DED0D0A26
:104E0000002026E00CA901EB800191ED000ADFED06
:104E1000A90AB4EEE00AF1EE10FA0DDD0CA901EBDF
:104E2000800191ED000ADFEDA40A30EE600A0CA9C2
:104E300001EB800181ED000A0CA901EB800191EDED
:104E4000000A20EE090A0CA901EB800181ED000A9D
:104E5000401C0228D6DBD4ED080AB3EE090A38EE6E
:104E6000C01AB7EE000A00EE810A42F64C20005F3D
:104E700000EE900AF8EEE00A20EE201AD4ED070AC0
:104E80009FED8E0A7AEEC01AB7EE000A00EEA10A74
:104E9000DDED0C0A41EE400ACDED0C0A94F8250038
:104EA000404525D1D4ED080AB3EE090A38EEC01A00
:104EB000B7EE000A00EE810A42F64C202044B0F919
:104EC000020000EE900AF8EEE00A20EE201AD4ED7F
:104ED000070A9FED7A0A7AEEC01AB7EE000A00EED2
:104EE000A10ADDED0D0A41EE400ACDED0D0A2AE0E2
:104EF00042F64C202044B0F9020000EE100AB8EE51
:104F0000C00A04F52050D0ED940A70EE200A94ED0A
:104F1000081AB3EE090A78EEC01AB7EE000A01EEDD
:104F2000210A20EE801AD4ED070A9FED640A7AEE7A
:104F3000C01AB7EE000A00EEA10ADDED0D0A41EE3F
:104F4000400ACDED0D0A0025F9E12846EA1705EBE8
:104F5000D26252112946EB1705EB93639B11A2EB2A
:104F6000430257B205EBD0714910A5EB41017940DE
:104F70004FFA81FBAB1C4FEAE37C03EB9C7C4FEACE
:104F8000AC0CEA1C4FEAE27E02EB9E7EACEBAE0C70
:104F9000691C4FEAE17E01EB9E7E0CEBAE0C4FEA02
:104FA000E57E05EB9E7EACEBAE0C4FEA470ECEF1F4
:104FB000010E0CFB0EFC4FFA8CF9B8F1000F01D179
:104FC0000B9701E0CDF82CB0B6F882160B98814211
:104FD00067D136F8150000EE100AB8EE400AB0EEC0
:104FE000408A9FED340AB4EEC08AF1EE10FA05DD76
:104FF0009FED310A38EE400AB0EE408A28EE090AE9
:10500000B0EE408A41F24420204400EB8500D0ED10
:10501000000AB3EE090A38EEC01AB7EE000A00EE35
:10502000810A04F6444030F9150000EE900AF8EECB
:10503000E00A20EE201A41F64460204400EB85008F
:10504000D0ED000A9FED1D0A7AEEC01AB7EE000AF5
:1050500000EEA10AF0EE480A41EE400AB0EE608A86
:1050600094F8250040451BD042F650202044D0ED56
:10507000020A7800401E00EE100AB8EEC01AB0EE28
:10508000480A00EE810A42F65020204490ED011AB1
:1050900000EE909AF8EEE00A01EE600AB0EE408A67
:1050A0000EE04BE133938843000000000000104005
:1050B0000000204200FEFF4600008047333353408B
:1050C00088EE0B0AB0EE408AD4ED060A0CA90698C9
:1050D00001EB800090ED001AB0EE480A00EEC10A24
:1050E000B0EE408A04F1440000EB850090ED000A28
:1050F000D4ED060A42F644202118069801EB800000
:1051000090ED001A00EEC10A94ED0A1AF3EE090AB6
:1051100078EEE01AF7EE000A41EE210A60EE209ADE
:10512000B0EE480A09EEAB0A10EE101A084600F07D
:1051300027F941EC1F0B19EE900A00F021F941EC20
:105140001C0B9FED841BB0EE4C0AF0EE6C0A00F0D5
:105150001CF98DED020B53EC1F2B9DED020B51EC56
:10516000100B00F01CF9CDE904019DED040B51EC8E
:10517000100B00F00FF90EEE100A94ED0C0A10EE71
:10518000101A084600F0FCF8CDE904011EEE100AE2
:1051900000F0F6F841EC1C0BB0EE4C0AF0EE6C0A95
:1051A00000F002F98DED000B9DED000B00F0FCF816
:1051B0008DED020B9DED040B53EC102B9DED020BBE
:1051C00051EC100B00F0EBF841EC1F0B00F0E2F893
:1051D0000EEE100AD4ED0C0A1FED4E1AB7EE000ABF
:1051E00000EEC10AF0EE4E0A49EE800A88EE200A6F
:1051F00030EE2B0A8DED010A019800F0C1F841EC68
:105200001F0BB0EE4F0AF0EE6F0A00F0CDF8B0EED3
:1052100040CAF0EE60CA00F0C7F88DED020B9FEDBA
:105220004F0B53EC102B9DED020B51EC100B00F0CB
:10523000C0F8CDE904019DED040B51EC100B00F01A
:10524000A9F80AEE100AB4F93E0000EE100AB8EE12
:10525000C00AB4EECA0AF1EE10FA02DD4FF0000AFD
:105260001DE0B4F9400000EE100AB8EEC00AB4EE3A
:10527000CA0AF1EE10FA02DD4FF0010A0FE0B4F9AC
:10528000420000EE100AB8EEC00AB4EECA0AF1EE0F
:1052900010FA02DD4FF0020A01E04FF0030A04F1B8
:1052A0002C0000EB8A00D0ED000A04F13C0030F93C
:1052B0001A0000EE100AB8EEC00A3AEE401AB7EE35
:1052C000000A00EE810A07A800EB8A00D0ED000A70
:1052D00060EEA90A60EE200A88EE200A30EE2B0A62
:1052E0008DED010A019800F04BF841EC1C0BB0EE7B
:1052F0004C0AF0EE6C0A00F057F8B0EE40FAF0EE0F
:1053000060FA00F051F88DED020B9FED160B53EC97
:10531000102B9DED020B51EC100B00F04AF8CDE97B
:1053200004019DED040B51EC100B00F033F80AEE74
:10533000100A229800EB850080ED00AA6D1CB5F5DF
:10534000407FFFF602AE0EB0BDEC108B05B0BDE89D
:10535000F08F000000000000000008400000006026
:1053600066127140666666666612714043F2390CD9
:10537000C0F6000C604742F6297CC0F6000C60477E
:1053800040F29F5CC0F6000C604743F6412CC0F62B
:10539000000C604740F2C55CC0F6000C604740F26C
:1053A000A13CC0F6000C604744F2916CC0F6000CC2
:1053B000604740F2953CC0F6000C604700000000DA
:1053C000100000000100000000BD01050000000009
:1053D00000000000040000000000000000000000C9
:040000050800019559
:00000001FF
